{
  "_format": "hh-sol-artifact-1",
  "contractName": "LinearVesting",
  "sourceName": "contracts/LinearVesting.sol",
  "abi": [
    {
      "inputs": [
        {
          "internalType": "uint256",
          "name": "_cliffDurationDays",
          "type": "uint256"
        },
        {
          "internalType": "uint256",
          "name": "_releaseDurationDays",
          "type": "uint256"
        }
      ],
      "stateMutability": "nonpayable",
      "type": "constructor"
    },
    {
      "inputs": [
        {
          "internalType": "uint256",
          "name": "_startTime",
          "type": "uint256"
        },
        {
          "internalType": "uint256",
          "name": "_allowance",
          "type": "uint256"
        }
      ],
      "name": "calcVestedAmount",
      "outputs": [
        {
          "internalType": "uint256",
          "name": "",
          "type": "uint256"
        }
      ],
      "stateMutability": "view",
      "type": "function"
    },
    {
      "inputs": [],
      "name": "cliffDuration",
      "outputs": [
        {
          "internalType": "uint256",
          "name": "",
          "type": "uint256"
        }
      ],
      "stateMutability": "view",
      "type": "function"
    },
    {
      "inputs": [],
      "name": "releaseDuration",
      "outputs": [
        {
          "internalType": "uint256",
          "name": "",
          "type": "uint256"
        }
      ],
      "stateMutability": "view",
      "type": "function"
    }
  ],
  "bytecode": "0x60c060405234801561001057600080fd5b506040516105ee3803806105ee8339818101604052810190610032919061007a565b620151808261004191906100b6565b60808181525050620151808161005791906100b6565b60a081815250505050610160565b60008151905061007481610149565b92915050565b6000806040838503121561008d57600080fd5b600061009b85828601610065565b92505060206100ac85828601610065565b9150509250929050565b60006100c182610110565b91506100cc83610110565b9250817fffffffffffffffffffffffffffffffffffffffffffffffffffffffffffffffff04831182151516156101055761010461011a565b5b828202905092915050565b6000819050919050565b7f4e487b7100000000000000000000000000000000000000000000000000000000600052601160045260246000fd5b61015281610110565b811461015d57600080fd5b50565b60805160a0516104486101a66000396000818160f20152818161014c01526101e101526000818160cb015281816101130152818161016e01526101bd01526104486000f3fe608060405234801561001057600080fd5b50600436106100415760003560e01c806340cb916c14610046578063d85349f714610076578063f9b4189114610094575b600080fd5b610060600480360381019061005b9190610218565b6100b2565b60405161006d9190610263565b60405180910390f35b61007e6101bb565b60405161008b9190610263565b60405180910390f35b61009c6101df565b6040516100a99190610263565b60405180910390f35b60008060009050600084426100c7919061035f565b90507f000000000000000000000000000000000000000000000000000000000000000081106101b0577f00000000000000000000000000000000000000000000000000000000000000007f000000000000000000000000000000000000000000000000000000000000000061013c919061027e565b811061014a578391506101af565b7f0000000000000000000000000000000000000000000000000000000000000000847f000000000000000000000000000000000000000000000000000000000000000083610198919061035f565b6101a29190610305565b6101ac91906102d4565b91505b5b819250505092915050565b7f000000000000000000000000000000000000000000000000000000000000000081565b7f000000000000000000000000000000000000000000000000000000000000000081565b600081359050610212816103fb565b92915050565b6000806040838503121561022b57600080fd5b600061023985828601610203565b925050602061024a85828601610203565b9150509250929050565b61025d81610393565b82525050565b60006020820190506102786000830184610254565b92915050565b600061028982610393565b915061029483610393565b9250827fffffffffffffffffffffffffffffffffffffffffffffffffffffffffffffffff038211156102c9576102c861039d565b5b828201905092915050565b60006102df82610393565b91506102ea83610393565b9250826102fa576102f96103cc565b5b828204905092915050565b600061031082610393565b915061031b83610393565b9250817fffffffffffffffffffffffffffffffffffffffffffffffffffffffffffffffff04831182151516156103545761035361039d565b5b828202905092915050565b600061036a82610393565b915061037583610393565b9250828210156103885761038761039d565b5b828203905092915050565b6000819050919050565b7f4e487b7100000000000000000000000000000000000000000000000000000000600052601160045260246000fd5b7f4e487b7100000000000000000000000000000000000000000000000000000000600052601260045260246000fd5b61040481610393565b811461040f57600080fd5b5056fea2646970667358221220065a6753c70dd7dc5c0296f691be58667ace8b4a4cb830d23b0f4ec0d789ab7c64736f6c63430008040033",
  "linkReferences": {},
  "deployedLinkReferences": {}
}