{
  "_format": "hh-sol-artifact-1",
  "contractName": "Staking",
  "sourceName": "contracts/Staking.sol",
  "abi": [
    {
      "inputs": [
        {
          "internalType": "address",
          "name": "_owner",
          "type": "address"
        },
        {
          "internalType": "contract IERC20",
          "name": "_rewardToken",
          "type": "address"
        }
      ],
      "stateMutability": "nonpayable",
      "type": "constructor"
    },
    {
      "anonymous": false,
      "inputs": [
        {
          "indexed": true,
          "internalType": "address",
          "name": "previousOwner",
          "type": "address"
        },
        {
          "indexed": true,
          "internalType": "address",
          "name": "newOwner",
          "type": "address"
        }
      ],
      "name": "OwnershipTransferred",
      "type": "event"
    },
    {
      "inputs": [
        {
          "internalType": "address",
          "name": "addr",
          "type": "address"
        }
      ],
      "name": "addToWhitelist",
      "outputs": [],
      "stateMutability": "nonpayable",
      "type": "function"
    },
    {
      "inputs": [
        {
          "internalType": "enum Staking.VestingId",
          "name": "vesting",
          "type": "uint8"
        },
        {
          "internalType": "uint256",
          "name": "stakeSize",
          "type": "uint256"
        }
      ],
      "name": "calcAPY",
      "outputs": [
        {
          "internalType": "uint256",
          "name": "",
          "type": "uint256"
        }
      ],
      "stateMutability": "view",
      "type": "function"
    },
    {
      "inputs": [],
      "name": "calcAPY",
      "outputs": [
        {
          "internalType": "uint256",
          "name": "",
          "type": "uint256"
        }
      ],
      "stateMutability": "view",
      "type": "function"
    },
    {
      "inputs": [],
      "name": "claimRewards",
      "outputs": [],
      "stateMutability": "nonpayable",
      "type": "function"
    },
    {
      "inputs": [],
      "name": "fullAmountOfTokens",
      "outputs": [
        {
          "internalType": "uint256",
          "name": "",
          "type": "uint256"
        }
      ],
      "stateMutability": "view",
      "type": "function"
    },
    {
      "inputs": [],
      "name": "howMuchToClaimIsLeft",
      "outputs": [
        {
          "internalType": "uint256",
          "name": "",
          "type": "uint256"
        }
      ],
      "stateMutability": "view",
      "type": "function"
    },
    {
      "inputs": [
        {
          "internalType": "uint256",
          "name": "amount",
          "type": "uint256"
        }
      ],
      "name": "increaseRewardsPool",
      "outputs": [],
      "stateMutability": "nonpayable",
      "type": "function"
    },
    {
      "inputs": [
        {
          "components": [
            {
              "internalType": "address",
              "name": "addr",
              "type": "address"
            },
            {
              "internalType": "uint256",
              "name": "stakeSize",
              "type": "uint256"
            },
            {
              "internalType": "enum Staking.VestingId",
              "name": "vesting",
              "type": "uint8"
            }
          ],
          "internalType": "struct Staking.NewUser[]",
          "name": "users",
          "type": "tuple[]"
        }
      ],
      "name": "initializeUsers",
      "outputs": [],
      "stateMutability": "nonpayable",
      "type": "function"
    },
    {
      "inputs": [
        {
          "internalType": "enum Staking.VestingId",
          "name": "vestingId",
          "type": "uint8"
        },
        {
          "internalType": "contract IVesting",
          "name": "vestingContract",
          "type": "address"
        },
        {
          "internalType": "uint256",
          "name": "rewardsPerDay",
          "type": "uint256"
        }
      ],
      "name": "initializeVesting",
      "outputs": [],
      "stateMutability": "nonpayable",
      "type": "function"
    },
    {
      "inputs": [],
      "name": "isStarted",
      "outputs": [
        {
          "internalType": "bool",
          "name": "",
          "type": "bool"
        }
      ],
      "stateMutability": "view",
      "type": "function"
    },
    {
      "inputs": [
        {
          "internalType": "address",
          "name": "",
          "type": "address"
        }
      ],
      "name": "isWhitelisted",
      "outputs": [
        {
          "internalType": "bool",
          "name": "",
          "type": "bool"
        }
      ],
      "stateMutability": "view",
      "type": "function"
    },
    {
      "inputs": [],
      "name": "owner",
      "outputs": [
        {
          "internalType": "address",
          "name": "",
          "type": "address"
        }
      ],
      "stateMutability": "view",
      "type": "function"
    },
    {
      "inputs": [
        {
          "internalType": "address",
          "name": "addr",
          "type": "address"
        }
      ],
      "name": "removeFromWhitelist",
      "outputs": [],
      "stateMutability": "nonpayable",
      "type": "function"
    },
    {
      "inputs": [],
      "name": "renounceOwnership",
      "outputs": [],
      "stateMutability": "nonpayable",
      "type": "function"
    },
    {
      "inputs": [],
      "name": "rewardToken",
      "outputs": [
        {
          "internalType": "contract IERC20",
          "name": "",
          "type": "address"
        }
      ],
      "stateMutability": "view",
      "type": "function"
    },
    {
      "inputs": [],
      "name": "rewardsPool",
      "outputs": [
        {
          "internalType": "uint256",
          "name": "",
          "type": "uint256"
        }
      ],
      "stateMutability": "view",
      "type": "function"
    },
    {
      "inputs": [
        {
          "internalType": "enum Staking.VestingId",
          "name": "vesting",
          "type": "uint8"
        },
        {
          "internalType": "uint256",
          "name": "amount",
          "type": "uint256"
        }
      ],
      "name": "stake",
      "outputs": [],
      "stateMutability": "nonpayable",
      "type": "function"
    },
    {
      "inputs": [
        {
          "internalType": "address",
          "name": "",
          "type": "address"
        }
      ],
      "name": "stakers",
      "outputs": [
        {
          "components": [
            {
              "internalType": "uint256",
              "name": "initialSize",
              "type": "uint256"
            },
            {
              "internalType": "uint256",
              "name": "currentSize",
              "type": "uint256"
            },
            {
              "internalType": "uint256",
              "name": "startTime",
              "type": "uint256"
            }
          ],
          "internalType": "struct Staking.Stake",
          "name": "stake",
          "type": "tuple"
        },
        {
          "internalType": "enum Staking.VestingId",
          "name": "vesting",
          "type": "uint8"
        },
        {
          "internalType": "uint256",
          "name": "rewardsPerToken",
          "type": "uint256"
        },
        {
          "internalType": "uint256",
          "name": "unclaimedRewards",
          "type": "uint256"
        }
      ],
      "stateMutability": "view",
      "type": "function"
    },
    {
      "inputs": [
        {
          "internalType": "uint256",
          "name": "initRewardsPool",
          "type": "uint256"
        }
      ],
      "name": "start",
      "outputs": [],
      "stateMutability": "nonpayable",
      "type": "function"
    },
    {
      "inputs": [],
      "name": "startTime",
      "outputs": [
        {
          "internalType": "uint256",
          "name": "",
          "type": "uint256"
        }
      ],
      "stateMutability": "view",
      "type": "function"
    },
    {
      "inputs": [
        {
          "internalType": "enum Staking.VestingId",
          "name": "",
          "type": "uint8"
        }
      ],
      "name": "totalStaked",
      "outputs": [
        {
          "internalType": "uint256",
          "name": "",
          "type": "uint256"
        }
      ],
      "stateMutability": "view",
      "type": "function"
    },
    {
      "inputs": [
        {
          "internalType": "address",
          "name": "newOwner",
          "type": "address"
        }
      ],
      "name": "transferOwnership",
      "outputs": [],
      "stateMutability": "nonpayable",
      "type": "function"
    },
    {
      "inputs": [
        {
          "internalType": "uint256",
          "name": "amount",
          "type": "uint256"
        }
      ],
      "name": "unstake",
      "outputs": [],
      "stateMutability": "nonpayable",
      "type": "function"
    },
    {
      "inputs": [
        {
          "internalType": "enum Staking.VestingId",
          "name": "",
          "type": "uint8"
        }
      ],
      "name": "vestings",
      "outputs": [
        {
          "internalType": "contract IVesting",
          "name": "strategy",
          "type": "address"
        },
        {
          "internalType": "uint256",
          "name": "rewardsPerDay",
          "type": "uint256"
        },
        {
          "internalType": "uint256",
          "name": "lastUpdateTime",
          "type": "uint256"
        },
        {
          "internalType": "uint256",
          "name": "rewardsPerToken",
          "type": "uint256"
        }
      ],
      "stateMutability": "view",
      "type": "function"
    },
    {
      "inputs": [
        {
          "internalType": "uint256",
          "name": "",
          "type": "uint256"
        }
      ],
      "name": "whitelisted",
      "outputs": [
        {
          "internalType": "address",
          "name": "",
          "type": "address"
        }
      ],
      "stateMutability": "view",
      "type": "function"
    }
  ],
  "bytecode": "0x60806040523480156200001157600080fd5b50604051620049de380380620049de8339818101604052810190620000379190620001e0565b620000576200004b620000e660201b60201c565b620000ee60201b60201c565b3373ffffffffffffffffffffffffffffffffffffffff168273ffffffffffffffffffffffffffffffffffffffff16146200009d576200009c82620000ee60201b60201c565b5b80600160006101000a81548173ffffffffffffffffffffffffffffffffffffffff021916908373ffffffffffffffffffffffffffffffffffffffff16021790555050506200029d565b600033905090565b60008060009054906101000a900473ffffffffffffffffffffffffffffffffffffffff169050816000806101000a81548173ffffffffffffffffffffffffffffffffffffffff021916908373ffffffffffffffffffffffffffffffffffffffff1602179055508173ffffffffffffffffffffffffffffffffffffffff168173ffffffffffffffffffffffffffffffffffffffff167f8be0079c531659141344cd1fd0a4f28419497f9722a3daafe3b4186f6b6457e060405160405180910390a35050565b600081519050620001c38162000269565b92915050565b600081519050620001da8162000283565b92915050565b60008060408385031215620001f457600080fd5b60006200020485828601620001b2565b92505060206200021785828601620001c9565b9150509250929050565b60006200022e8262000249565b9050919050565b6000620002428262000221565b9050919050565b600073ffffffffffffffffffffffffffffffffffffffff82169050919050565b620002748162000221565b81146200028057600080fd5b50565b6200028e8162000235565b81146200029a57600080fd5b50565b61473180620002ad6000396000f3fe608060405234801561001057600080fd5b50600436106101735760003560e01c8063715018a6116100de578063b2e56ebb11610097578063e43252d711610071578063e43252d71461042c578063f2fde38b14610448578063f7c618c114610464578063f8b0271c1461048257610173565b8063b2e56ebb146103d6578063b7c97cbb146103f2578063dd752e551461041057610173565b8063715018a61461032557806378e979251461032f5780638ab1d6811461034d5780638da5cb5b146103695780639168ae721461038757806395805dad146103ba57610173565b80633d4efe09116101305780633d4efe091461024c57806343f5f8761461027c578063544736e61461029a57806356192de2146102b85780635e41c33a146102d65780636b48c46c146102f257610173565b80630359fea9146101785780631c4cda98146101965780631ee59c46146101c65780632e17de78146101f6578063372500ab146102125780633af32abf1461021c575b600080fd5b61018061049e565b60405161018d919061409b565b60405180910390f35b6101b060048036038101906101ab9190613a3a565b6104a4565b6040516101bd919061409b565b60405180910390f35b6101e060048036038101906101db91906139c2565b61070d565b6040516101ed919061409b565b60405180910390f35b610210600480360381019061020b9190613a76565b610725565b005b61021a610c4b565b005b6102366004803603810190610231919061392b565b610e7a565b6040516102439190613dfb565b60405180910390f35b61026660048036038101906102619190613a76565b610e9a565b6040516102739190613d80565b60405180910390f35b610284610ed9565b604051610291919061409b565b60405180910390f35b6102a26111d1565b6040516102af9190613dfb565b60405180910390f35b6102c06111e4565b6040516102cd919061409b565b60405180910390f35b6102f060048036038101906102eb9190613a76565b61134d565b005b61030c600480360381019061030791906139c2565b611499565b60405161031c9493929190613e31565b60405180910390f35b61032d6114e9565b005b610337611571565b604051610344919061409b565b60405180910390f35b6103676004803603810190610362919061392b565b611577565b005b610371611b19565b60405161037e9190613d80565b60405180910390f35b6103a1600480360381019061039c919061392b565b611b42565b6040516103b19493929190614056565b60405180910390f35b6103d460048036038101906103cf9190613a76565b611ba7565b005b6103f060048036038101906103eb9190613954565b612065565b005b6103fa6124d7565b604051610407919061409b565b60405180910390f35b61042a60048036038101906104259190613a3a565b61257e565b005b6104466004803603810190610441919061392b565b612b90565b005b610462600480360381019061045d919061392b565b612d5d565b005b61046c612e55565b6040516104799190613e16565b60405180910390f35b61049c600480360381019061049791906139eb565b612e7b565b005b60075481565b600060011515600860009054906101000a900460ff161515146104fc576040517f08c379a00000000000000000000000000000000000000000000000000000000081526004016104f390613f76565b60405180910390fd5b60006002811115610536577f4e487b7100000000000000000000000000000000000000000000000000000000600052602160045260246000fd5b83600281111561056f577f4e487b7100000000000000000000000000000000000000000000000000000000600052602160045260246000fd5b14156105b0576040517f08c379a00000000000000000000000000000000000000000000000000000000081526004016105a790613e76565b60405180910390fd5b61070561064983600360008760028111156105f4577f4e487b7100000000000000000000000000000000000000000000000000000000600052602160045260246000fd5b600281111561062c577f4e487b7100000000000000000000000000000000000000000000000000000000600052602160045260246000fd5b8152602001908152602001600020546130da90919063ffffffff16565b6106f760646106e961016d600260008a6002811115610691577f4e487b7100000000000000000000000000000000000000000000000000000000600052602160045260246000fd5b60028111156106c9577f4e487b7100000000000000000000000000000000000000000000000000000000600052602160045260246000fd5b8152602001908152602001600020600101546130f090919063ffffffff16565b6130f090919063ffffffff16565b61310690919063ffffffff16565b905092915050565b60036020528060005260406000206000915090505481565b6000600281111561075f577f4e487b7100000000000000000000000000000000000000000000000000000000600052602160045260246000fd5b600660003373ffffffffffffffffffffffffffffffffffffffff1673ffffffffffffffffffffffffffffffffffffffff16815260200190815260200160002060030160009054906101000a900460ff1660028111156107e7577f4e487b7100000000000000000000000000000000000000000000000000000000600052602160045260246000fd5b1415610828576040517f08c379a000000000000000000000000000000000000000000000000000000000815260040161081f90614016565b60405180910390fd5b60011515600860009054906101000a900460ff1615151461087e576040517f08c379a000000000000000000000000000000000000000000000000000000000815260040161087590613f76565b60405180910390fd5b6000600660003373ffffffffffffffffffffffffffffffffffffffff1673ffffffffffffffffffffffffffffffffffffffff16815260200190815260200160002090506000816000016002015414156108e05760095481600001600201819055505b818160000160010154101561092a576040517f08c379a000000000000000000000000000000000000000000000000000000000815260040161092190613eb6565b60405180910390fd5b6000600260008360030160009054906101000a900460ff16600281111561097a577f4e487b7100000000000000000000000000000000000000000000000000000000600052602160045260246000fd5b60028111156109b2577f4e487b7100000000000000000000000000000000000000000000000000000000600052602160045260246000fd5b8152602001908152602001600020905060006109cd3361311c565b905083811015610a12576040517f08c379a0000000000000000000000000000000000000000000000000000000008152600401610a0990614036565b60405180910390fd5b610a1b336132f0565b610ac284600360008660030160009054906101000a900460ff166002811115610a6d577f4e487b7100000000000000000000000000000000000000000000000000000000600052602160045260246000fd5b6002811115610aa5577f4e487b7100000000000000000000000000000000000000000000000000000000600052602160045260246000fd5b81526020019081526020016000205461340290919063ffffffff16565b600360008560030160009054906101000a900460ff166002811115610b10577f4e487b7100000000000000000000000000000000000000000000000000000000600052602160045260246000fd5b6002811115610b48577f4e487b7100000000000000000000000000000000000000000000000000000000600052602160045260246000fd5b815260200190815260200160002081905550428260020181905550600160009054906101000a900473ffffffffffffffffffffffffffffffffffffffff1673ffffffffffffffffffffffffffffffffffffffff1663a9059cbb33866040518363ffffffff1660e01b8152600401610bc0929190613dd2565b602060405180830381600087803b158015610bda57600080fd5b505af1158015610bee573d6000803e3d6000fd5b505050506040513d601f19601f82011682018060405250810190610c129190613999565b50610c2d84846000016001015461340290919063ffffffff16565b83600001600101819055508160030154836004018190555050505050565b600560003373ffffffffffffffffffffffffffffffffffffffff1673ffffffffffffffffffffffffffffffffffffffff16815260200190815260200160002060009054906101000a900460ff16610ca157600080fd5b60011515600860009054906101000a900460ff16151514610cf7576040517f08c379a0000000000000000000000000000000000000000000000000000000008152600401610cee90613f76565b60405180910390fd5b610d00336132f0565b6000600660003373ffffffffffffffffffffffffffffffffffffffff1673ffffffffffffffffffffffffffffffffffffffff1681526020019081526020016000209050600081600501541115610e775780600501546007541015610d99576040517f08c379a0000000000000000000000000000000000000000000000000000000008152600401610d9090613ff6565b60405180910390fd5b600160009054906101000a900473ffffffffffffffffffffffffffffffffffffffff1673ffffffffffffffffffffffffffffffffffffffff1663a9059cbb3383600501546040518363ffffffff1660e01b8152600401610dfa929190613dd2565b602060405180830381600087803b158015610e1457600080fd5b505af1158015610e28573d6000803e3d6000fd5b505050506040513d601f19601f82011682018060405250810190610e4c9190613999565b50610e66816005015460075461340290919063ffffffff16565b600781905550600081600501819055505b50565b60056020528060005260406000206000915054906101000a900460ff1681565b60048181548110610eaa57600080fd5b906000526020600020016000915054906101000a900473ffffffffffffffffffffffffffffffffffffffff1681565b600060011515600860009054906101000a900460ff16151514610f31576040517f08c379a0000000000000000000000000000000000000000000000000000000008152600401610f2890613f76565b60405180910390fd5b60006002811115610f6b577f4e487b7100000000000000000000000000000000000000000000000000000000600052602160045260246000fd5b600660003373ffffffffffffffffffffffffffffffffffffffff1673ffffffffffffffffffffffffffffffffffffffff16815260200190815260200160002060030160009054906101000a900460ff166002811115610ff3577f4e487b7100000000000000000000000000000000000000000000000000000000600052602160045260246000fd5b1415611034576040517f08c379a000000000000000000000000000000000000000000000000000000000815260040161102b90614016565b60405180910390fd5b6000600660003373ffffffffffffffffffffffffffffffffffffffff1673ffffffffffffffffffffffffffffffffffffffff16815260200190815260200160002060030160009054906101000a900460ff1690506111cb600360008360028111156110c8577f4e487b7100000000000000000000000000000000000000000000000000000000600052602160045260246000fd5b6002811115611100577f4e487b7100000000000000000000000000000000000000000000000000000000600052602160045260246000fd5b8152602001908152602001600020546111bd60646111af61016d60026000886002811115611157577f4e487b7100000000000000000000000000000000000000000000000000000000600052602160045260246000fd5b600281111561118f577f4e487b7100000000000000000000000000000000000000000000000000000000600052602160045260246000fd5b8152602001908152602001600020600101546130f090919063ffffffff16565b6130f090919063ffffffff16565b61310690919063ffffffff16565b91505090565b600860009054906101000a900460ff1681565b600060011515600860009054906101000a900460ff1615151461123c576040517f08c379a000000000000000000000000000000000000000000000000000000000815260040161123390613f76565b60405180910390fd5b60006002811115611276577f4e487b7100000000000000000000000000000000000000000000000000000000600052602160045260246000fd5b600660003373ffffffffffffffffffffffffffffffffffffffff1673ffffffffffffffffffffffffffffffffffffffff16815260200190815260200160002060030160009054906101000a900460ff1660028111156112fe577f4e487b7100000000000000000000000000000000000000000000000000000000600052602160045260246000fd5b141561133f576040517f08c379a000000000000000000000000000000000000000000000000000000000815260040161133690614016565b60405180910390fd5b6113483361311c565b905090565b611355613418565b73ffffffffffffffffffffffffffffffffffffffff16611373611b19565b73ffffffffffffffffffffffffffffffffffffffff16146113c9576040517f08c379a00000000000000000000000000000000000000000000000000000000081526004016113c090613f56565b60405180910390fd5b600160009054906101000a900473ffffffffffffffffffffffffffffffffffffffff1673ffffffffffffffffffffffffffffffffffffffff166323b872dd3330846040518463ffffffff1660e01b815260040161142893929190613d9b565b602060405180830381600087803b15801561144257600080fd5b505af1158015611456573d6000803e3d6000fd5b505050506040513d601f19601f8201168201806040525081019061147a9190613999565b50611490816007546130da90919063ffffffff16565b60078190555050565b60026020528060005260406000206000915090508060000160009054906101000a900473ffffffffffffffffffffffffffffffffffffffff16908060010154908060020154908060030154905084565b6114f1613418565b73ffffffffffffffffffffffffffffffffffffffff1661150f611b19565b73ffffffffffffffffffffffffffffffffffffffff1614611565576040517f08c379a000000000000000000000000000000000000000000000000000000000815260040161155c90613f56565b60405180910390fd5b61156f6000613420565b565b60095481565b61157f613418565b73ffffffffffffffffffffffffffffffffffffffff1661159d611b19565b73ffffffffffffffffffffffffffffffffffffffff16146115f3576040517f08c379a00000000000000000000000000000000000000000000000000000000081526004016115ea90613f56565b60405180910390fd5b600560008273ffffffffffffffffffffffffffffffffffffffff1673ffffffffffffffffffffffffffffffffffffffff16815260200190815260200160002060009054906101000a900460ff1661167f576040517f08c379a000000000000000000000000000000000000000000000000000000000815260040161167690613ef6565b60405180910390fd5b6000600560008373ffffffffffffffffffffffffffffffffffffffff1673ffffffffffffffffffffffffffffffffffffffff16815260200190815260200160002060006101000a81548160ff02191690831515021790555060005b600480549050811015611b15576000600660008473ffffffffffffffffffffffffffffffffffffffff1673ffffffffffffffffffffffffffffffffffffffff16815260200190815260200160002090508273ffffffffffffffffffffffffffffffffffffffff166004838154811061177b577f4e487b7100000000000000000000000000000000000000000000000000000000600052603260045260246000fd5b9060005260206000200160009054906101000a900473ffffffffffffffffffffffffffffffffffffffff1673ffffffffffffffffffffffffffffffffffffffff1614801561184b5750600060028111156117fe577f4e487b7100000000000000000000000000000000000000000000000000000000600052602160045260246000fd5b8160030160009054906101000a900460ff166002811115611848577f4e487b7100000000000000000000000000000000000000000000000000000000600052602160045260246000fd5b14155b15611b01576118fe8160000160010154600360008460030160009054906101000a900460ff1660028111156118a9577f4e487b7100000000000000000000000000000000000000000000000000000000600052602160045260246000fd5b60028111156118e1577f4e487b7100000000000000000000000000000000000000000000000000000000600052602160045260246000fd5b81526020019081526020016000205461340290919063ffffffff16565b600360008360030160009054906101000a900460ff16600281111561194c577f4e487b7100000000000000000000000000000000000000000000000000000000600052602160045260246000fd5b6002811115611984577f4e487b7100000000000000000000000000000000000000000000000000000000600052602160045260246000fd5b815260200190815260200160002081905550600460016004805490506119aa91906141d1565b815481106119e1577f4e487b7100000000000000000000000000000000000000000000000000000000600052603260045260246000fd5b9060005260206000200160009054906101000a900473ffffffffffffffffffffffffffffffffffffffff1660048381548110611a46577f4e487b7100000000000000000000000000000000000000000000000000000000600052603260045260246000fd5b9060005260206000200160006101000a81548173ffffffffffffffffffffffffffffffffffffffff021916908373ffffffffffffffffffffffffffffffffffffffff1602179055506004805480611ac6577f4e487b7100000000000000000000000000000000000000000000000000000000600052603160045260246000fd5b6001900381819060005260206000200160006101000a81549073ffffffffffffffffffffffffffffffffffffffff0219169055905550611b15565b508080611b0d906142cc565b9150506116da565b5050565b60008060009054906101000a900473ffffffffffffffffffffffffffffffffffffffff16905090565b6006602052806000526040600020600091509050806000016040518060600160405290816000820154815260200160018201548152602001600282015481525050908060030160009054906101000a900460ff16908060040154908060050154905084565b611baf613418565b73ffffffffffffffffffffffffffffffffffffffff16611bcd611b19565b73ffffffffffffffffffffffffffffffffffffffff1614611c23576040517f08c379a0000000000000000000000000000000000000000000000000000000008152600401611c1a90613f56565b60405180910390fd5b60001515600860009054906101000a900460ff16151514611c79576040517f08c379a0000000000000000000000000000000000000000000000000000000008152600401611c7090613f36565b60405180910390fd5b600073ffffffffffffffffffffffffffffffffffffffff166002600060016002811115611ccf577f4e487b7100000000000000000000000000000000000000000000000000000000600052602160045260246000fd5b6002811115611d07577f4e487b7100000000000000000000000000000000000000000000000000000000600052602160045260246000fd5b815260200190815260200160002060000160009054906101000a900473ffffffffffffffffffffffffffffffffffffffff1673ffffffffffffffffffffffffffffffffffffffff1614158015611e315750600073ffffffffffffffffffffffffffffffffffffffff166002600060016002811115611dae577f4e487b7100000000000000000000000000000000000000000000000000000000600052602160045260246000fd5b6002811115611de6577f4e487b7100000000000000000000000000000000000000000000000000000000600052602160045260246000fd5b815260200190815260200160002060000160009054906101000a900473ffffffffffffffffffffffffffffffffffffffff1673ffffffffffffffffffffffffffffffffffffffff1614155b611e70576040517f08c379a0000000000000000000000000000000000000000000000000000000008152600401611e6790613f16565b60405180910390fd5b600160009054906101000a900473ffffffffffffffffffffffffffffffffffffffff1673ffffffffffffffffffffffffffffffffffffffff166323b872dd3330846040518463ffffffff1660e01b8152600401611ecf93929190613d9b565b602060405180830381600087803b158015611ee957600080fd5b505af1158015611efd573d6000803e3d6000fd5b505050506040513d601f19601f82011682018060405250810190611f219190613999565b508060078190555042600981905550426002600060016002811115611f6f577f4e487b7100000000000000000000000000000000000000000000000000000000600052602160045260246000fd5b6002811115611fa7577f4e487b7100000000000000000000000000000000000000000000000000000000600052602160045260246000fd5b8152602001908152602001600020600201819055504260026000600280811115611ffa577f4e487b7100000000000000000000000000000000000000000000000000000000600052602160045260246000fd5b6002811115612032577f4e487b7100000000000000000000000000000000000000000000000000000000600052602160045260246000fd5b8152602001908152602001600020600201819055506001600860006101000a81548160ff02191690831515021790555050565b61206d613418565b73ffffffffffffffffffffffffffffffffffffffff1661208b611b19565b73ffffffffffffffffffffffffffffffffffffffff16146120e1576040517f08c379a00000000000000000000000000000000000000000000000000000000081526004016120d890613f56565b60405180910390fd5b60001515600860009054906101000a900460ff16151514612137576040517f08c379a000000000000000000000000000000000000000000000000000000000815260040161212e90613f36565b60405180910390fd5b601482829050111561217e576040517f08c379a000000000000000000000000000000000000000000000000000000000815260040161217590613fb6565b60405180910390fd5b60005b828290508110156124d257368383838181106121c6577f4e487b7100000000000000000000000000000000000000000000000000000000600052603260045260246000fd5b90506060020190506121e98160000160208101906121e4919061392b565b612b90565b600060066000836000016020810190612202919061392b565b73ffffffffffffffffffffffffffffffffffffffff1673ffffffffffffffffffffffffffffffffffffffff1681526020019081526020016000209050816020013581600001600001819055508160200135816000016001018190555081604001602081019061227191906139c2565b8160030160006101000a81548160ff021916908360028111156122bd577f4e487b7100000000000000000000000000000000000000000000000000000000600052602160045260246000fd5b0217905550600160009054906101000a900473ffffffffffffffffffffffffffffffffffffffff1673ffffffffffffffffffffffffffffffffffffffff166323b872dd333085602001356040518463ffffffff1660e01b815260040161232593929190613d9b565b602060405180830381600087803b15801561233f57600080fd5b505af1158015612353573d6000803e3d6000fd5b505050506040513d601f19601f820116820180604052508101906123779190613999565b5061242482602001356003600085604001602081019061239791906139c2565b60028111156123cf577f4e487b7100000000000000000000000000000000000000000000000000000000600052602160045260246000fd5b6002811115612407577f4e487b7100000000000000000000000000000000000000000000000000000000600052602160045260246000fd5b8152602001908152602001600020546130da90919063ffffffff16565b6003600084604001602081019061243b91906139c2565b6002811115612473577f4e487b7100000000000000000000000000000000000000000000000000000000600052602160045260246000fd5b60028111156124ab577f4e487b7100000000000000000000000000000000000000000000000000000000600052602160045260246000fd5b815260200190815260200160002081905550505080806124ca906142cc565b915050612181565b505050565b6000600160009054906101000a900473ffffffffffffffffffffffffffffffffffffffff1673ffffffffffffffffffffffffffffffffffffffff166318160ddd6040518163ffffffff1660e01b815260040160206040518083038186803b15801561254157600080fd5b505afa158015612555573d6000803e3d6000fd5b505050506040513d601f19601f820116820180604052508101906125799190613a9f565b905090565b600560003373ffffffffffffffffffffffffffffffffffffffff1673ffffffffffffffffffffffffffffffffffffffff16815260200190815260200160002060009054906101000a900460ff166125d457600080fd5b6000600281111561260e577f4e487b7100000000000000000000000000000000000000000000000000000000600052602160045260246000fd5b600660003373ffffffffffffffffffffffffffffffffffffffff1673ffffffffffffffffffffffffffffffffffffffff16815260200190815260200160002060030160009054906101000a900460ff166002811115612696577f4e487b7100000000000000000000000000000000000000000000000000000000600052602160045260246000fd5b146126d6576040517f08c379a00000000000000000000000000000000000000000000000000000000081526004016126cd90613fd6565b60405180910390fd5b60011515600860009054906101000a900460ff1615151461272c576040517f08c379a000000000000000000000000000000000000000000000000000000000815260040161272390613f76565b60405180910390fd5b60006002811115612766577f4e487b7100000000000000000000000000000000000000000000000000000000600052602160045260246000fd5b82600281111561279f577f4e487b7100000000000000000000000000000000000000000000000000000000600052602160045260246000fd5b14156127e0576040517f08c379a00000000000000000000000000000000000000000000000000000000081526004016127d790613f96565b60405180910390fd5b6000600660003373ffffffffffffffffffffffffffffffffffffffff1673ffffffffffffffffffffffffffffffffffffffff1681526020019081526020016000209050600160009054906101000a900473ffffffffffffffffffffffffffffffffffffffff1673ffffffffffffffffffffffffffffffffffffffff166323b872dd3330856040518463ffffffff1660e01b815260040161288293929190613d9b565b602060405180830381600087803b15801561289c57600080fd5b505af11580156128b0573d6000803e3d6000fd5b505050506040513d601f19601f820116820180604052508101906128d49190613999565b506128de836134e4565b612974826003600086600281111561291f577f4e487b7100000000000000000000000000000000000000000000000000000000600052602160045260246000fd5b6002811115612957577f4e487b7100000000000000000000000000000000000000000000000000000000600052602160045260246000fd5b8152602001908152602001600020546130da90919063ffffffff16565b600360008560028111156129b1577f4e487b7100000000000000000000000000000000000000000000000000000000600052602160045260246000fd5b60028111156129e9577f4e487b7100000000000000000000000000000000000000000000000000000000600052602160045260246000fd5b8152602001908152602001600020819055504260026000856002811115612a39577f4e487b7100000000000000000000000000000000000000000000000000000000600052602160045260246000fd5b6002811115612a71577f4e487b7100000000000000000000000000000000000000000000000000000000600052602160045260246000fd5b81526020019081526020016000206002018190555060026000846002811115612ac3577f4e487b7100000000000000000000000000000000000000000000000000000000600052602160045260246000fd5b6002811115612afb577f4e487b7100000000000000000000000000000000000000000000000000000000600052602160045260246000fd5b8152602001908152602001600020600301548160040181905550818160000160000181905550818160000160010181905550428160000160020181905550828160030160006101000a81548160ff02191690836002811115612b86577f4e487b7100000000000000000000000000000000000000000000000000000000600052602160045260246000fd5b0217905550505050565b612b98613418565b73ffffffffffffffffffffffffffffffffffffffff16612bb6611b19565b73ffffffffffffffffffffffffffffffffffffffff1614612c0c576040517f08c379a0000000000000000000000000000000000000000000000000000000008152600401612c0390613f56565b60405180910390fd5b60001515600560008373ffffffffffffffffffffffffffffffffffffffff1673ffffffffffffffffffffffffffffffffffffffff16815260200190815260200160002060009054906101000a900460ff16151514612c9f576040517f08c379a0000000000000000000000000000000000000000000000000000000008152600401612c9690613e96565b60405180910390fd5b6004819080600181540180825580915050600190039060005260206000200160009091909190916101000a81548173ffffffffffffffffffffffffffffffffffffffff021916908373ffffffffffffffffffffffffffffffffffffffff1602179055506001600560008373ffffffffffffffffffffffffffffffffffffffff1673ffffffffffffffffffffffffffffffffffffffff16815260200190815260200160002060006101000a81548160ff02191690831515021790555050565b612d65613418565b73ffffffffffffffffffffffffffffffffffffffff16612d83611b19565b73ffffffffffffffffffffffffffffffffffffffff1614612dd9576040517f08c379a0000000000000000000000000000000000000000000000000000000008152600401612dd090613f56565b60405180910390fd5b600073ffffffffffffffffffffffffffffffffffffffff168173ffffffffffffffffffffffffffffffffffffffff161415612e49576040517f08c379a0000000000000000000000000000000000000000000000000000000008152600401612e4090613ed6565b60405180910390fd5b612e5281613420565b50565b600160009054906101000a900473ffffffffffffffffffffffffffffffffffffffff1681565b612e83613418565b73ffffffffffffffffffffffffffffffffffffffff16612ea1611b19565b73ffffffffffffffffffffffffffffffffffffffff1614612ef7576040517f08c379a0000000000000000000000000000000000000000000000000000000008152600401612eee90613f56565b60405180910390fd5b60001515600860009054906101000a900460ff16151514612f4d576040517f08c379a0000000000000000000000000000000000000000000000000000000008152600401612f4490613f36565b60405180910390fd5b60006002811115612f87577f4e487b7100000000000000000000000000000000000000000000000000000000600052602160045260246000fd5b836002811115612fc0577f4e487b7100000000000000000000000000000000000000000000000000000000600052602160045260246000fd5b1415613001576040517f08c379a0000000000000000000000000000000000000000000000000000000008152600401612ff890613f96565b60405180910390fd5b600060026000856002811115613040577f4e487b7100000000000000000000000000000000000000000000000000000000600052602160045260246000fd5b6002811115613078577f4e487b7100000000000000000000000000000000000000000000000000000000600052602160045260246000fd5b81526020019081526020016000209050818160010181905550828160000160006101000a81548173ffffffffffffffffffffffffffffffffffffffff021916908373ffffffffffffffffffffffffffffffffffffffff16021790555050505050565b600081836130e891906140f0565b905092915050565b600081836130fe9190614177565b905092915050565b600081836131149190614146565b905092915050565b600080600660008473ffffffffffffffffffffffffffffffffffffffff1673ffffffffffffffffffffffffffffffffffffffff16815260200190815260200160002090506000600260008360030160009054906101000a900460ff1660028111156131b0577f4e487b7100000000000000000000000000000000000000000000000000000000600052602160045260246000fd5b60028111156131e8577f4e487b7100000000000000000000000000000000000000000000000000000000600052602160045260246000fd5b815260200190815260200160002060000160009054906101000a900473ffffffffffffffffffffffffffffffffffffffff1690506132e76132408360000160010154846000016000015461340290919063ffffffff16565b8273ffffffffffffffffffffffffffffffffffffffff166340cb916c856000016002015486600001600001546040518363ffffffff1660e01b81526004016132899291906140b6565b60206040518083038186803b1580156132a157600080fd5b505afa1580156132b5573d6000803e3d6000fd5b505050506040513d601f19601f820116820180604052508101906132d99190613a9f565b61340290919063ffffffff16565b92505050919050565b6000600660008373ffffffffffffffffffffffffffffffffffffffff1673ffffffffffffffffffffffffffffffffffffffff168152602001908152602001600020905061334d8160030160009054906101000a900460ff166134e4565b61335682613704565b8160050181905550600260008260030160009054906101000a900460ff1660028111156133ac577f4e487b7100000000000000000000000000000000000000000000000000000000600052602160045260246000fd5b60028111156133e4577f4e487b7100000000000000000000000000000000000000000000000000000000600052602160045260246000fd5b81526020019081526020016000206003015481600401819055505050565b6000818361341091906141d1565b905092915050565b600033905090565b60008060009054906101000a900473ffffffffffffffffffffffffffffffffffffffff169050816000806101000a81548173ffffffffffffffffffffffffffffffffffffffff021916908373ffffffffffffffffffffffffffffffffffffffff1602179055508173ffffffffffffffffffffffffffffffffffffffff168173ffffffffffffffffffffffffffffffffffffffff167f8be0079c531659141344cd1fd0a4f28419497f9722a3daafe3b4186f6b6457e060405160405180910390a35050565b600060026000836002811115613523577f4e487b7100000000000000000000000000000000000000000000000000000000600052602160045260246000fd5b600281111561355b577f4e487b7100000000000000000000000000000000000000000000000000000000600052602160045260246000fd5b8152602001908152602001600020905080600201544211801561360157506000600360008460028111156135b8577f4e487b7100000000000000000000000000000000000000000000000000000000600052602160045260246000fd5b60028111156135f0577f4e487b7100000000000000000000000000000000000000000000000000000000600052602160045260246000fd5b815260200190815260200160002054115b15613700576136f76136e460036000856002811115613649577f4e487b7100000000000000000000000000000000000000000000000000000000600052602160045260246000fd5b6002811115613681577f4e487b7100000000000000000000000000000000000000000000000000000000600052602160045260246000fd5b8152602001908152602001600020546136d6670de0b6b3a76400006136c8620151806136ba88600201544261340290919063ffffffff16565b61310690919063ffffffff16565b6130f090919063ffffffff16565b61310690919063ffffffff16565b82600301546130da90919063ffffffff16565b81600301819055505b5050565b600080600660008473ffffffffffffffffffffffffffffffffffffffff1673ffffffffffffffffffffffffffffffffffffffff16815260200190815260200160002090506000600260008360030160009054906101000a900460ff166002811115613798577f4e487b7100000000000000000000000000000000000000000000000000000000600052602160045260246000fd5b60028111156137d0577f4e487b7100000000000000000000000000000000000000000000000000000000600052602160045260246000fd5b8152602001908152602001600020905061385a613847670de0b6b3a764000061383961380d8660040154866003015461340290919063ffffffff16565b61382b876000016001015487600101546130f090919063ffffffff16565b6130f090919063ffffffff16565b61310690919063ffffffff16565b83600501546130da90919063ffffffff16565b92505050919050565b6000813590506138728161468f565b92915050565b60008083601f84011261388a57600080fd5b8235905067ffffffffffffffff8111156138a357600080fd5b6020830191508360608202830111156138bb57600080fd5b9250929050565b6000815190506138d1816146a6565b92915050565b6000813590506138e6816146bd565b92915050565b6000813590506138fb816146d4565b92915050565b600081359050613910816146e4565b92915050565b600081519050613925816146e4565b92915050565b60006020828403121561393d57600080fd5b600061394b84828501613863565b91505092915050565b6000806020838503121561396757600080fd5b600083013567ffffffffffffffff81111561398157600080fd5b61398d85828601613878565b92509250509250929050565b6000602082840312156139ab57600080fd5b60006139b9848285016138c2565b91505092915050565b6000602082840312156139d457600080fd5b60006139e2848285016138ec565b91505092915050565b600080600060608486031215613a0057600080fd5b6000613a0e868287016138ec565b9350506020613a1f868287016138d7565b9250506040613a3086828701613901565b9150509250925092565b60008060408385031215613a4d57600080fd5b6000613a5b858286016138ec565b9250506020613a6c85828601613901565b9150509250929050565b600060208284031215613a8857600080fd5b6000613a9684828501613901565b91505092915050565b600060208284031215613ab157600080fd5b6000613abf84828501613916565b91505092915050565b613ad181614205565b82525050565b613ae081614217565b82525050565b613aef81614272565b82525050565b613afe81614296565b82525050565b613b0d816142ba565b82525050565b6000613b20600c836140df565b9150613b2b826143a2565b602082019050919050565b6000613b43601f836140df565b9150613b4e826143cb565b602082019050919050565b6000613b666019836140df565b9150613b71826143f4565b602082019050919050565b6000613b896026836140df565b9150613b948261441d565b604082019050919050565b6000613bac601b836140df565b9150613bb78261446c565b602082019050919050565b6000613bcf6017836140df565b9150613bda82614495565b602082019050919050565b6000613bf26017836140df565b9150613bfd826144be565b602082019050919050565b6000613c156020836140df565b9150613c20826144e7565b602082019050919050565b6000613c386017836140df565b9150613c4382614510565b602082019050919050565b6000613c5b600d836140df565b9150613c6682614539565b602082019050919050565b6000613c7e601d836140df565b9150613c8982614562565b602082019050919050565b6000613ca16024836140df565b9150613cac8261458b565b604082019050919050565b6000613cc4601e836140df565b9150613ccf826145da565b602082019050919050565b6000613ce76017836140df565b9150613cf282614603565b602082019050919050565b6000613d0a6028836140df565b9150613d158261462c565b604082019050919050565b606082016000820151613d366000850182613d62565b506020820151613d496020850182613d62565b506040820151613d5c6040850182613d62565b50505050565b613d6b81614268565b82525050565b613d7a81614268565b82525050565b6000602082019050613d956000830184613ac8565b92915050565b6000606082019050613db06000830186613ac8565b613dbd6020830185613ac8565b613dca6040830184613d71565b949350505050565b6000604082019050613de76000830185613ac8565b613df46020830184613d71565b9392505050565b6000602082019050613e106000830184613ad7565b92915050565b6000602082019050613e2b6000830184613ae6565b92915050565b6000608082019050613e466000830187613af5565b613e536020830186613d71565b613e606040830185613d71565b613e6d6060830184613d71565b95945050505050565b60006020820190508181036000830152613e8f81613b13565b9050919050565b60006020820190508181036000830152613eaf81613b36565b9050919050565b60006020820190508181036000830152613ecf81613b59565b9050919050565b60006020820190508181036000830152613eef81613b7c565b9050919050565b60006020820190508181036000830152613f0f81613b9f565b9050919050565b60006020820190508181036000830152613f2f81613bc2565b9050919050565b60006020820190508181036000830152613f4f81613be5565b9050919050565b60006020820190508181036000830152613f6f81613c08565b9050919050565b60006020820190508181036000830152613f8f81613c2b565b9050919050565b60006020820190508181036000830152613faf81613c4e565b9050919050565b60006020820190508181036000830152613fcf81613c71565b9050919050565b60006020820190508181036000830152613fef81613c94565b9050919050565b6000602082019050818103600083015261400f81613cb7565b9050919050565b6000602082019050818103600083015261402f81613cda565b9050919050565b6000602082019050818103600083015261404f81613cfd565b9050919050565b600060c08201905061406b6000830187613d20565b6140786060830186613b04565b6140856080830185613d71565b61409260a0830184613d71565b95945050505050565b60006020820190506140b06000830184613d71565b92915050565b60006040820190506140cb6000830185613d71565b6140d86020830184613d71565b9392505050565b600082825260208201905092915050565b60006140fb82614268565b915061410683614268565b9250827fffffffffffffffffffffffffffffffffffffffffffffffffffffffffffffffff0382111561413b5761413a614315565b5b828201905092915050565b600061415182614268565b915061415c83614268565b92508261416c5761416b614344565b5b828204905092915050565b600061418282614268565b915061418d83614268565b9250817fffffffffffffffffffffffffffffffffffffffffffffffffffffffffffffffff04831182151516156141c6576141c5614315565b5b828202905092915050565b60006141dc82614268565b91506141e783614268565b9250828210156141fa576141f9614315565b5b828203905092915050565b600061421082614248565b9050919050565b60008115159050919050565b600061422e82614205565b9050919050565b60008190506142438261467b565b919050565b600073ffffffffffffffffffffffffffffffffffffffff82169050919050565b6000819050919050565b600061427d82614284565b9050919050565b600061428f82614248565b9050919050565b60006142a1826142a8565b9050919050565b60006142b382614248565b9050919050565b60006142c582614235565b9050919050565b60006142d782614268565b91507fffffffffffffffffffffffffffffffffffffffffffffffffffffffffffffffff82141561430a57614309614315565b5b600182019050919050565b7f4e487b7100000000000000000000000000000000000000000000000000000000600052601160045260246000fd5b7f4e487b7100000000000000000000000000000000000000000000000000000000600052601260045260246000fd5b7f4e487b7100000000000000000000000000000000000000000000000000000000600052602160045260246000fd5b7f57726f6e6756657374696e670000000000000000000000000000000000000000600082015250565b7f4164647265737320697320616c726561647920696e2077686974656c69737400600082015250565b7f42616c616e6365206973206e6f742073756666696369656e7400000000000000600082015250565b7f4f776e61626c653a206e6577206f776e657220697320746865207a65726f206160008201527f6464726573730000000000000000000000000000000000000000000000000000602082015250565b7f41646472657373206d7573742062652077686974656c69737465640000000000600082015250565b7f5374616b696e67206e6f7420696e697469616c697a6564000000000000000000600082015250565b7f5374616b696e6720616c72656164792073746172746564000000000000000000600082015250565b7f4f776e61626c653a2063616c6c6572206973206e6f7420746865206f776e6572600082015250565b7f5374616b696e67206e6f74207374617274656420796574000000000000000000600082015250565b7f57726f6e672076657374696e6700000000000000000000000000000000000000600082015250565b7f4172726179206f66206e657720757365727320697320746f6f20626967000000600082015250565b7f5573657220616c72656164792070617274696369706174657320696e2073746160008201527f6b696e6700000000000000000000000000000000000000000000000000000000602082015250565b7f52657761726420706f6f6c206d7573742062652073756666696369656e740000600082015250565b7f5573657220686176656e2774207374616b656420796574000000000000000000600082015250565b7f5375636820616d6f756e74206f6620746f6b656e7320617265206e6f7420766560008201527f7374656420796574000000000000000000000000000000000000000000000000602082015250565b6003811061468c5761468b614373565b5b50565b61469881614205565b81146146a357600080fd5b50565b6146af81614217565b81146146ba57600080fd5b50565b6146c681614223565b81146146d157600080fd5b50565b600381106146e157600080fd5b50565b6146ed81614268565b81146146f857600080fd5b5056fea2646970667358221220501e607d0182b0eca2f5014c38790d7bff6aa82fee0c01a356f4479395d1d6db64736f6c63430008040033",
  "linkReferences": {},
  "deployedLinkReferences": {}
}